{
  "contractName": "SafeMathTest",
  "abi": [
    {
      "constant": true,
      "inputs": [],
      "name": "testSafeMath",
      "outputs": [],
      "payable": false,
      "stateMutability": "pure",
      "type": "function"
    }
  ],
  "bytecode": "0x608060405234801561001057600080fd5b50610179806100206000396000f300608060405260043610610041576000357c0100000000000000000000000000000000000000000000000000000000900463ffffffff168063fcf3f6d114610046575b600080fd5b34801561005257600080fd5b5061005b61005d565b005b60008090506000610078600a836100cf90919063ffffffff16565b14151561008457600080fd5b600061009a600a8361010a90919063ffffffff16565b1415156100a657600080fd5b600a905060016100c060008361010a90919063ffffffff16565b1415156100cc57600080fd5b50565b60008060008414156100e45760009150610103565b82840290508284828115156100f557fe5b041415156100ff57fe5b8091505b5092915050565b600080600084141561011f5760009150610146565b60008314156101315760019150610146565b82840a905083811015151561014257fe5b8091505b50929150505600a165627a7a723058201d74023f31393b374ecbcaa9b3d98a6e4a2ae3e2df293969d6946194c5eed41f0029",
  "source": "pragma solidity ^0.4.24;\r\n\r\nimport \"./SafeMath.sol\";\r\n\r\ncontract SafeMathTest {\r\n    using SafeMath for uint;\r\n    \r\n    function testSafeMath() public pure {\r\n        uint a = 0;\r\n        \r\n        require(a.mul(10)==0);\r\n        require(a.pow(10)==0);\r\n        \r\n        a = 10;\r\n        require(a.pow(0)==1);\r\n    }\r\n}",
  "sourcePath": "D:\\GitProjectsRoot\\ProjectSolidity\\truffle\\project\\contracts\\SafeMathTest.sol",
  "compiler": {
    "name": "solc",
    "version": "0.4.24+commit.e67f0147.Emscripten.clang"
  },
  "schemaVersion": "2.0.1",
  "updatedAt": "2018-07-14T13:42:01.107Z"
}